ARM GAS  /tmp/ccrMsxnq.s 			page 1


   1              		.cpu cortex-m0
   2              		.eabi_attribute 20, 1
   3              		.eabi_attribute 21, 1
   4              		.eabi_attribute 23, 3
   5              		.eabi_attribute 24, 1
   6              		.eabi_attribute 25, 1
   7              		.eabi_attribute 26, 1
   8              		.eabi_attribute 30, 1
   9              		.eabi_attribute 34, 0
  10              		.eabi_attribute 18, 4
  11              		.file	"CRC.c"
  12              		.text
  13              	.Ltext0:
  14              		.cfi_sections	.debug_frame
  15              		.section	.text.CRC16,"ax",%progbits
  16              		.align	1
  17              		.global	CRC16
  18              		.syntax unified
  19              		.code	16
  20              		.thumb_func
  21              		.fpu softvfp
  23              	CRC16:
  24              	.LFB40:
  25              		.file 1 "Src/CRC.c"
   1:Src/CRC.c     **** #include "CRC.h"
   2:Src/CRC.c     **** 
   3:Src/CRC.c     **** static const unsigned char crc_hi[] =
   4:Src/CRC.c     **** {
   5:Src/CRC.c     ****     0x00, 0xC1, 0x81, 0x40, 0x01, 0xC0, 0x80, 0x41, 0x01, 0xC0, 0x80, 0x41, 0x00, 0xC1, 0x81,
   6:Src/CRC.c     ****     0x40, 0x01, 0xC0, 0x80, 0x41, 0x00, 0xC1, 0x81, 0x40, 0x00, 0xC1, 0x81, 0x40, 0x01, 0xC0,
   7:Src/CRC.c     ****     0x80, 0x41, 0x01, 0xC0, 0x80, 0x41, 0x00, 0xC1, 0x81, 0x40, 0x00, 0xC1, 0x81, 0x40, 0x01,
   8:Src/CRC.c     ****     0xC0, 0x80, 0x41, 0x00, 0xC1, 0x81, 0x40, 0x01, 0xC0, 0x80, 0x41, 0x01, 0xC0, 0x80, 0x41,
   9:Src/CRC.c     ****     0x00, 0xC1, 0x81, 0x40, 0x01, 0xC0, 0x80, 0x41, 0x00, 0xC1, 0x81, 0x40, 0x00, 0xC1, 0x81,
  10:Src/CRC.c     ****     0x40, 0x01, 0xC0, 0x80, 0x41, 0x00, 0xC1, 0x81, 0x40, 0x01, 0xC0, 0x80, 0x41, 0x01, 0xC0,
  11:Src/CRC.c     ****     0x80, 0x41, 0x00, 0xC1, 0x81, 0x40, 0x00, 0xC1, 0x81, 0x40, 0x01, 0xC0, 0x80, 0x41, 0x01,
  12:Src/CRC.c     ****     0xC0, 0x80, 0x41, 0x00, 0xC1, 0x81, 0x40, 0x01, 0xC0, 0x80, 0x41, 0x00, 0xC1, 0x81, 0x40,
  13:Src/CRC.c     ****     0x00, 0xC1, 0x81, 0x40, 0x01, 0xC0, 0x80, 0x41, 0x01, 0xC0, 0x80, 0x41, 0x00, 0xC1, 0x81,
  14:Src/CRC.c     ****     0x40, 0x00, 0xC1, 0x81, 0x40, 0x01, 0xC0, 0x80, 0x41, 0x00, 0xC1, 0x81, 0x40, 0x01, 0xC0,
  15:Src/CRC.c     ****     0x80, 0x41, 0x01, 0xC0, 0x80, 0x41, 0x00, 0xC1, 0x81, 0x40, 0x00, 0xC1, 0x81, 0x40, 0x01,
  16:Src/CRC.c     ****     0xC0, 0x80, 0x41, 0x01, 0xC0, 0x80, 0x41, 0x00, 0xC1, 0x81, 0x40, 0x01, 0xC0, 0x80, 0x41,
  17:Src/CRC.c     ****     0x00, 0xC1, 0x81, 0x40, 0x00, 0xC1, 0x81, 0x40, 0x01, 0xC0, 0x80, 0x41, 0x00, 0xC1, 0x81,
  18:Src/CRC.c     ****     0x40, 0x01, 0xC0, 0x80, 0x41, 0x01, 0xC0, 0x80, 0x41, 0x00, 0xC1, 0x81, 0x40, 0x01, 0xC0,
  19:Src/CRC.c     ****     0x80, 0x41, 0x00, 0xC1, 0x81, 0x40, 0x00, 0xC1, 0x81, 0x40, 0x01, 0xC0, 0x80, 0x41, 0x01,
  20:Src/CRC.c     ****     0xC0, 0x80, 0x41, 0x00, 0xC1, 0x81, 0x40, 0x00, 0xC1, 0x81, 0x40, 0x01, 0xC0, 0x80, 0x41,
  21:Src/CRC.c     ****     0x00, 0xC1, 0x81, 0x40, 0x01, 0xC0, 0x80, 0x41, 0x01, 0xC0, 0x80, 0x41, 0x00, 0xC1, 0x81,
  22:Src/CRC.c     ****     0x40
  23:Src/CRC.c     **** } ;
  24:Src/CRC.c     **** 
  25:Src/CRC.c     **** static char crc_lo[] =
  26:Src/CRC.c     **** {
  27:Src/CRC.c     ****     0x00, 0xC0, 0xC1, 0x01, 0xC3, 0x03, 0x02, 0xC2, 0xC6, 0x06, 0x07, 0xC7, 0x05, 0xC5, 0xC4,
  28:Src/CRC.c     ****     0x04, 0xCC, 0x0C, 0x0D, 0xCD, 0x0F, 0xCF, 0xCE, 0x0E, 0x0A, 0xCA, 0xCB, 0x0B, 0xC9, 0x09,
  29:Src/CRC.c     ****     0x08, 0xC8, 0xD8, 0x18, 0x19, 0xD9, 0x1B, 0xDB, 0xDA, 0x1A, 0x1E, 0xDE, 0xDF, 0x1F, 0xDD,
  30:Src/CRC.c     ****     0x1D, 0x1C, 0xDC, 0x14, 0xD4, 0xD5, 0x15, 0xD7, 0x17, 0x16, 0xD6, 0xD2, 0x12, 0x13, 0xD3,
  31:Src/CRC.c     ****     0x11, 0xD1, 0xD0, 0x10, 0xF0, 0x30, 0x31, 0xF1, 0x33, 0xF3, 0xF2, 0x32, 0x36, 0xF6, 0xF7,
  32:Src/CRC.c     ****     0x37, 0xF5, 0x35, 0x34, 0xF4, 0x3C, 0xFC, 0xFD, 0x3D, 0xFF, 0x3F, 0x3E, 0xFE, 0xFA, 0x3A,
  33:Src/CRC.c     ****     0x3B, 0xFB, 0x39, 0xF9, 0xF8, 0x38, 0x28, 0xE8, 0xE9, 0x29, 0xEB, 0x2B, 0x2A, 0xEA, 0xEE,
ARM GAS  /tmp/ccrMsxnq.s 			page 2


  34:Src/CRC.c     ****     0x2E, 0x2F, 0xEF, 0x2D, 0xED, 0xEC, 0x2C, 0xE4, 0x24, 0x25, 0xE5, 0x27, 0xE7, 0xE6, 0x26,
  35:Src/CRC.c     ****     0x22, 0xE2, 0xE3, 0x23, 0xE1, 0x21, 0x20, 0xE0, 0xA0, 0x60, 0x61, 0xA1, 0x63, 0xA3, 0xA2,
  36:Src/CRC.c     ****     0x62, 0x66, 0xA6, 0xA7, 0x67, 0xA5, 0x65, 0x64, 0xA4, 0x6C, 0xAC, 0xAD, 0x6D, 0xAF, 0x6F,
  37:Src/CRC.c     ****     0x6E, 0xAE, 0xAA, 0x6A, 0x6B, 0xAB, 0x69, 0xA9, 0xA8, 0x68, 0x78, 0xB8, 0xB9, 0x79, 0xBB,
  38:Src/CRC.c     ****     0x7B, 0x7A, 0xBA, 0xBE, 0x7E, 0x7F, 0xBF, 0x7D, 0xBD, 0xBC, 0x7C, 0xB4, 0x74, 0x75, 0xB5,
  39:Src/CRC.c     ****     0x77, 0xB7, 0xB6, 0x76, 0x72, 0xB2, 0xB3, 0x73, 0xB1, 0x71, 0x70, 0xB0, 0x50, 0x90, 0x91,
  40:Src/CRC.c     ****     0x51, 0x93, 0x53, 0x52, 0x92, 0x96, 0x56, 0x57, 0x97, 0x55, 0x95, 0x94, 0x54, 0x9C, 0x5C,
  41:Src/CRC.c     ****     0x5D, 0x9D, 0x5F, 0x9F, 0x9E, 0x5E, 0x5A, 0x9A, 0x9B, 0x5B, 0x99, 0x59, 0x58, 0x98, 0x88,
  42:Src/CRC.c     ****     0x48, 0x49, 0x89, 0x4B, 0x8B, 0x8A, 0x4A, 0x4E, 0x8E, 0x8F, 0x4F, 0x8D, 0x4D, 0x4C, 0x8C,
  43:Src/CRC.c     ****     0x44, 0x84, 0x85, 0x45, 0x87, 0x47, 0x46, 0x86, 0x82, 0x42, 0x43, 0x83, 0x41, 0x81, 0x80,
  44:Src/CRC.c     ****     0x40
  45:Src/CRC.c     **** };
  46:Src/CRC.c     **** 
  47:Src/CRC.c     **** uint16_t CRC16(unsigned char* msg, uint16_t data_len)
  48:Src/CRC.c     **** {
  26              		.loc 1 48 0
  27              		.cfi_startproc
  28              		@ args = 0, pretend = 0, frame = 0
  29              		@ frame_needed = 0, uses_anonymous_args = 0
  30              	.LVL0:
  31 0000 30B5     		push	{r4, r5, lr}
  32              	.LCFI0:
  33              		.cfi_def_cfa_offset 12
  34              		.cfi_offset 4, -12
  35              		.cfi_offset 5, -8
  36              		.cfi_offset 14, -4
  37              	.LVL1:
  49:Src/CRC.c     ****     unsigned char _crc_hi = 0xFF; /* high byte of CRC initialized */
  50:Src/CRC.c     ****     unsigned char _crc_lo = 0xFF; /* low byte of CRC initialized */
  38              		.loc 1 50 0
  39 0002 FF24     		movs	r4, #255
  49:Src/CRC.c     ****     unsigned char _crc_hi = 0xFF; /* high byte of CRC initialized */
  40              		.loc 1 49 0
  41 0004 FF25     		movs	r5, #255
  51:Src/CRC.c     ****     unsigned index; /* will index into CRC lookup table */
  52:Src/CRC.c     ****     while (data_len--) /* pass through message buffer */
  42              		.loc 1 52 0
  43 0006 08E0     		b	.L2
  44              	.LVL2:
  45              	.L3:
  53:Src/CRC.c     ****     {
  54:Src/CRC.c     ****         index = _crc_lo ^ *msg++; /* calculate the CRC */
  46              		.loc 1 54 0
  47 0008 0378     		ldrb	r3, [r0]
  48 000a 6340     		eors	r3, r4
  49              	.LVL3:
  55:Src/CRC.c     ****         _crc_lo = _crc_hi ^ crc_hi[index];
  50              		.loc 1 55 0
  51 000c 0749     		ldr	r1, .L4
  52 000e CC5C     		ldrb	r4, [r1, r3]
  53              	.LVL4:
  54 0010 6C40     		eors	r4, r5
  55              	.LVL5:
  56:Src/CRC.c     ****         _crc_hi = crc_lo[index];
  56              		.loc 1 56 0
  57 0012 0749     		ldr	r1, .L4+4
  58 0014 CD5C     		ldrb	r5, [r1, r3]
ARM GAS  /tmp/ccrMsxnq.s 			page 3


  59              	.LVL6:
  52:Src/CRC.c     ****     {
  60              		.loc 1 52 0
  61 0016 1100     		movs	r1, r2
  54:Src/CRC.c     ****         _crc_lo = _crc_hi ^ crc_hi[index];
  62              		.loc 1 54 0
  63 0018 0130     		adds	r0, r0, #1
  64              	.LVL7:
  65              	.L2:
  52:Src/CRC.c     ****     {
  66              		.loc 1 52 0
  67 001a 4A1E     		subs	r2, r1, #1
  68 001c 92B2     		uxth	r2, r2
  69              	.LVL8:
  70 001e 0029     		cmp	r1, #0
  71 0020 F2D1     		bne	.L3
  57:Src/CRC.c     ****     }
  58:Src/CRC.c     ****     return (_crc_hi << 8 | _crc_lo);
  72              		.loc 1 58 0
  73 0022 2802     		lsls	r0, r5, #8
  74              	.LVL9:
  75 0024 2043     		orrs	r0, r4
  76 0026 80B2     		uxth	r0, r0
  59:Src/CRC.c     **** }
  77              		.loc 1 59 0
  78              		@ sp needed
  79              	.LVL10:
  80              	.LVL11:
  81 0028 30BD     		pop	{r4, r5, pc}
  82              	.L5:
  83 002a C046     		.align	2
  84              	.L4:
  85 002c 00000000 		.word	crc_hi
  86 0030 00000000 		.word	crc_lo
  87              		.cfi_endproc
  88              	.LFE40:
  90              		.section	.rodata.crc_hi,"a",%progbits
  91              		.align	2
  94              	crc_hi:
  95 0000 00       		.byte	0
  96 0001 C1       		.byte	-63
  97 0002 81       		.byte	-127
  98 0003 40       		.byte	64
  99 0004 01       		.byte	1
 100 0005 C0       		.byte	-64
 101 0006 80       		.byte	-128
 102 0007 41       		.byte	65
 103 0008 01       		.byte	1
 104 0009 C0       		.byte	-64
 105 000a 80       		.byte	-128
 106 000b 41       		.byte	65
 107 000c 00       		.byte	0
 108 000d C1       		.byte	-63
 109 000e 81       		.byte	-127
 110 000f 40       		.byte	64
 111 0010 01       		.byte	1
 112 0011 C0       		.byte	-64
ARM GAS  /tmp/ccrMsxnq.s 			page 4


 113 0012 80       		.byte	-128
 114 0013 41       		.byte	65
 115 0014 00       		.byte	0
 116 0015 C1       		.byte	-63
 117 0016 81       		.byte	-127
 118 0017 40       		.byte	64
 119 0018 00       		.byte	0
 120 0019 C1       		.byte	-63
 121 001a 81       		.byte	-127
 122 001b 40       		.byte	64
 123 001c 01       		.byte	1
 124 001d C0       		.byte	-64
 125 001e 80       		.byte	-128
 126 001f 41       		.byte	65
 127 0020 01       		.byte	1
 128 0021 C0       		.byte	-64
 129 0022 80       		.byte	-128
 130 0023 41       		.byte	65
 131 0024 00       		.byte	0
 132 0025 C1       		.byte	-63
 133 0026 81       		.byte	-127
 134 0027 40       		.byte	64
 135 0028 00       		.byte	0
 136 0029 C1       		.byte	-63
 137 002a 81       		.byte	-127
 138 002b 40       		.byte	64
 139 002c 01       		.byte	1
 140 002d C0       		.byte	-64
 141 002e 80       		.byte	-128
 142 002f 41       		.byte	65
 143 0030 00       		.byte	0
 144 0031 C1       		.byte	-63
 145 0032 81       		.byte	-127
 146 0033 40       		.byte	64
 147 0034 01       		.byte	1
 148 0035 C0       		.byte	-64
 149 0036 80       		.byte	-128
 150 0037 41       		.byte	65
 151 0038 01       		.byte	1
 152 0039 C0       		.byte	-64
 153 003a 80       		.byte	-128
 154 003b 41       		.byte	65
 155 003c 00       		.byte	0
 156 003d C1       		.byte	-63
 157 003e 81       		.byte	-127
 158 003f 40       		.byte	64
 159 0040 01       		.byte	1
 160 0041 C0       		.byte	-64
 161 0042 80       		.byte	-128
 162 0043 41       		.byte	65
 163 0044 00       		.byte	0
 164 0045 C1       		.byte	-63
 165 0046 81       		.byte	-127
 166 0047 40       		.byte	64
 167 0048 00       		.byte	0
 168 0049 C1       		.byte	-63
 169 004a 81       		.byte	-127
ARM GAS  /tmp/ccrMsxnq.s 			page 5


 170 004b 40       		.byte	64
 171 004c 01       		.byte	1
 172 004d C0       		.byte	-64
 173 004e 80       		.byte	-128
 174 004f 41       		.byte	65
 175 0050 00       		.byte	0
 176 0051 C1       		.byte	-63
 177 0052 81       		.byte	-127
 178 0053 40       		.byte	64
 179 0054 01       		.byte	1
 180 0055 C0       		.byte	-64
 181 0056 80       		.byte	-128
 182 0057 41       		.byte	65
 183 0058 01       		.byte	1
 184 0059 C0       		.byte	-64
 185 005a 80       		.byte	-128
 186 005b 41       		.byte	65
 187 005c 00       		.byte	0
 188 005d C1       		.byte	-63
 189 005e 81       		.byte	-127
 190 005f 40       		.byte	64
 191 0060 00       		.byte	0
 192 0061 C1       		.byte	-63
 193 0062 81       		.byte	-127
 194 0063 40       		.byte	64
 195 0064 01       		.byte	1
 196 0065 C0       		.byte	-64
 197 0066 80       		.byte	-128
 198 0067 41       		.byte	65
 199 0068 01       		.byte	1
 200 0069 C0       		.byte	-64
 201 006a 80       		.byte	-128
 202 006b 41       		.byte	65
 203 006c 00       		.byte	0
 204 006d C1       		.byte	-63
 205 006e 81       		.byte	-127
 206 006f 40       		.byte	64
 207 0070 01       		.byte	1
 208 0071 C0       		.byte	-64
 209 0072 80       		.byte	-128
 210 0073 41       		.byte	65
 211 0074 00       		.byte	0
 212 0075 C1       		.byte	-63
 213 0076 81       		.byte	-127
 214 0077 40       		.byte	64
 215 0078 00       		.byte	0
 216 0079 C1       		.byte	-63
 217 007a 81       		.byte	-127
 218 007b 40       		.byte	64
 219 007c 01       		.byte	1
 220 007d C0       		.byte	-64
 221 007e 80       		.byte	-128
 222 007f 41       		.byte	65
 223 0080 01       		.byte	1
 224 0081 C0       		.byte	-64
 225 0082 80       		.byte	-128
 226 0083 41       		.byte	65
ARM GAS  /tmp/ccrMsxnq.s 			page 6


 227 0084 00       		.byte	0
 228 0085 C1       		.byte	-63
 229 0086 81       		.byte	-127
 230 0087 40       		.byte	64
 231 0088 00       		.byte	0
 232 0089 C1       		.byte	-63
 233 008a 81       		.byte	-127
 234 008b 40       		.byte	64
 235 008c 01       		.byte	1
 236 008d C0       		.byte	-64
 237 008e 80       		.byte	-128
 238 008f 41       		.byte	65
 239 0090 00       		.byte	0
 240 0091 C1       		.byte	-63
 241 0092 81       		.byte	-127
 242 0093 40       		.byte	64
 243 0094 01       		.byte	1
 244 0095 C0       		.byte	-64
 245 0096 80       		.byte	-128
 246 0097 41       		.byte	65
 247 0098 01       		.byte	1
 248 0099 C0       		.byte	-64
 249 009a 80       		.byte	-128
 250 009b 41       		.byte	65
 251 009c 00       		.byte	0
 252 009d C1       		.byte	-63
 253 009e 81       		.byte	-127
 254 009f 40       		.byte	64
 255 00a0 00       		.byte	0
 256 00a1 C1       		.byte	-63
 257 00a2 81       		.byte	-127
 258 00a3 40       		.byte	64
 259 00a4 01       		.byte	1
 260 00a5 C0       		.byte	-64
 261 00a6 80       		.byte	-128
 262 00a7 41       		.byte	65
 263 00a8 01       		.byte	1
 264 00a9 C0       		.byte	-64
 265 00aa 80       		.byte	-128
 266 00ab 41       		.byte	65
 267 00ac 00       		.byte	0
 268 00ad C1       		.byte	-63
 269 00ae 81       		.byte	-127
 270 00af 40       		.byte	64
 271 00b0 01       		.byte	1
 272 00b1 C0       		.byte	-64
 273 00b2 80       		.byte	-128
 274 00b3 41       		.byte	65
 275 00b4 00       		.byte	0
 276 00b5 C1       		.byte	-63
 277 00b6 81       		.byte	-127
 278 00b7 40       		.byte	64
 279 00b8 00       		.byte	0
 280 00b9 C1       		.byte	-63
 281 00ba 81       		.byte	-127
 282 00bb 40       		.byte	64
 283 00bc 01       		.byte	1
ARM GAS  /tmp/ccrMsxnq.s 			page 7


 284 00bd C0       		.byte	-64
 285 00be 80       		.byte	-128
 286 00bf 41       		.byte	65
 287 00c0 00       		.byte	0
 288 00c1 C1       		.byte	-63
 289 00c2 81       		.byte	-127
 290 00c3 40       		.byte	64
 291 00c4 01       		.byte	1
 292 00c5 C0       		.byte	-64
 293 00c6 80       		.byte	-128
 294 00c7 41       		.byte	65
 295 00c8 01       		.byte	1
 296 00c9 C0       		.byte	-64
 297 00ca 80       		.byte	-128
 298 00cb 41       		.byte	65
 299 00cc 00       		.byte	0
 300 00cd C1       		.byte	-63
 301 00ce 81       		.byte	-127
 302 00cf 40       		.byte	64
 303 00d0 01       		.byte	1
 304 00d1 C0       		.byte	-64
 305 00d2 80       		.byte	-128
 306 00d3 41       		.byte	65
 307 00d4 00       		.byte	0
 308 00d5 C1       		.byte	-63
 309 00d6 81       		.byte	-127
 310 00d7 40       		.byte	64
 311 00d8 00       		.byte	0
 312 00d9 C1       		.byte	-63
 313 00da 81       		.byte	-127
 314 00db 40       		.byte	64
 315 00dc 01       		.byte	1
 316 00dd C0       		.byte	-64
 317 00de 80       		.byte	-128
 318 00df 41       		.byte	65
 319 00e0 01       		.byte	1
 320 00e1 C0       		.byte	-64
 321 00e2 80       		.byte	-128
 322 00e3 41       		.byte	65
 323 00e4 00       		.byte	0
 324 00e5 C1       		.byte	-63
 325 00e6 81       		.byte	-127
 326 00e7 40       		.byte	64
 327 00e8 00       		.byte	0
 328 00e9 C1       		.byte	-63
 329 00ea 81       		.byte	-127
 330 00eb 40       		.byte	64
 331 00ec 01       		.byte	1
 332 00ed C0       		.byte	-64
 333 00ee 80       		.byte	-128
 334 00ef 41       		.byte	65
 335 00f0 00       		.byte	0
 336 00f1 C1       		.byte	-63
 337 00f2 81       		.byte	-127
 338 00f3 40       		.byte	64
 339 00f4 01       		.byte	1
 340 00f5 C0       		.byte	-64
ARM GAS  /tmp/ccrMsxnq.s 			page 8


 341 00f6 80       		.byte	-128
 342 00f7 41       		.byte	65
 343 00f8 01       		.byte	1
 344 00f9 C0       		.byte	-64
 345 00fa 80       		.byte	-128
 346 00fb 41       		.byte	65
 347 00fc 00       		.byte	0
 348 00fd C1       		.byte	-63
 349 00fe 81       		.byte	-127
 350 00ff 40       		.byte	64
 351              		.section	.rodata.crc_lo,"a",%progbits
 352              		.align	2
 355              	crc_lo:
 356 0000 00       		.byte	0
 357 0001 C0       		.byte	-64
 358 0002 C1       		.byte	-63
 359 0003 01       		.byte	1
 360 0004 C3       		.byte	-61
 361 0005 03       		.byte	3
 362 0006 02       		.byte	2
 363 0007 C2       		.byte	-62
 364 0008 C6       		.byte	-58
 365 0009 06       		.byte	6
 366 000a 07       		.byte	7
 367 000b C7       		.byte	-57
 368 000c 05       		.byte	5
 369 000d C5       		.byte	-59
 370 000e C4       		.byte	-60
 371 000f 04       		.byte	4
 372 0010 CC       		.byte	-52
 373 0011 0C       		.byte	12
 374 0012 0D       		.byte	13
 375 0013 CD       		.byte	-51
 376 0014 0F       		.byte	15
 377 0015 CF       		.byte	-49
 378 0016 CE       		.byte	-50
 379 0017 0E       		.byte	14
 380 0018 0A       		.byte	10
 381 0019 CA       		.byte	-54
 382 001a CB       		.byte	-53
 383 001b 0B       		.byte	11
 384 001c C9       		.byte	-55
 385 001d 09       		.byte	9
 386 001e 08       		.byte	8
 387 001f C8       		.byte	-56
 388 0020 D8       		.byte	-40
 389 0021 18       		.byte	24
 390 0022 19       		.byte	25
 391 0023 D9       		.byte	-39
 392 0024 1B       		.byte	27
 393 0025 DB       		.byte	-37
 394 0026 DA       		.byte	-38
 395 0027 1A       		.byte	26
 396 0028 1E       		.byte	30
 397 0029 DE       		.byte	-34
 398 002a DF       		.byte	-33
 399 002b 1F       		.byte	31
ARM GAS  /tmp/ccrMsxnq.s 			page 9


 400 002c DD       		.byte	-35
 401 002d 1D       		.byte	29
 402 002e 1C       		.byte	28
 403 002f DC       		.byte	-36
 404 0030 14       		.byte	20
 405 0031 D4       		.byte	-44
 406 0032 D5       		.byte	-43
 407 0033 15       		.byte	21
 408 0034 D7       		.byte	-41
 409 0035 17       		.byte	23
 410 0036 16       		.byte	22
 411 0037 D6       		.byte	-42
 412 0038 D2       		.byte	-46
 413 0039 12       		.byte	18
 414 003a 13       		.byte	19
 415 003b D3       		.byte	-45
 416 003c 11       		.byte	17
 417 003d D1       		.byte	-47
 418 003e D0       		.byte	-48
 419 003f 10       		.byte	16
 420 0040 F0       		.byte	-16
 421 0041 30       		.byte	48
 422 0042 31       		.byte	49
 423 0043 F1       		.byte	-15
 424 0044 33       		.byte	51
 425 0045 F3       		.byte	-13
 426 0046 F2       		.byte	-14
 427 0047 32       		.byte	50
 428 0048 36       		.byte	54
 429 0049 F6       		.byte	-10
 430 004a F7       		.byte	-9
 431 004b 37       		.byte	55
 432 004c F5       		.byte	-11
 433 004d 35       		.byte	53
 434 004e 34       		.byte	52
 435 004f F4       		.byte	-12
 436 0050 3C       		.byte	60
 437 0051 FC       		.byte	-4
 438 0052 FD       		.byte	-3
 439 0053 3D       		.byte	61
 440 0054 FF       		.byte	-1
 441 0055 3F       		.byte	63
 442 0056 3E       		.byte	62
 443 0057 FE       		.byte	-2
 444 0058 FA       		.byte	-6
 445 0059 3A       		.byte	58
 446 005a 3B       		.byte	59
 447 005b FB       		.byte	-5
 448 005c 39       		.byte	57
 449 005d F9       		.byte	-7
 450 005e F8       		.byte	-8
 451 005f 38       		.byte	56
 452 0060 28       		.byte	40
 453 0061 E8       		.byte	-24
 454 0062 E9       		.byte	-23
 455 0063 29       		.byte	41
 456 0064 EB       		.byte	-21
ARM GAS  /tmp/ccrMsxnq.s 			page 10


 457 0065 2B       		.byte	43
 458 0066 2A       		.byte	42
 459 0067 EA       		.byte	-22
 460 0068 EE       		.byte	-18
 461 0069 2E       		.byte	46
 462 006a 2F       		.byte	47
 463 006b EF       		.byte	-17
 464 006c 2D       		.byte	45
 465 006d ED       		.byte	-19
 466 006e EC       		.byte	-20
 467 006f 2C       		.byte	44
 468 0070 E4       		.byte	-28
 469 0071 24       		.byte	36
 470 0072 25       		.byte	37
 471 0073 E5       		.byte	-27
 472 0074 27       		.byte	39
 473 0075 E7       		.byte	-25
 474 0076 E6       		.byte	-26
 475 0077 26       		.byte	38
 476 0078 22       		.byte	34
 477 0079 E2       		.byte	-30
 478 007a E3       		.byte	-29
 479 007b 23       		.byte	35
 480 007c E1       		.byte	-31
 481 007d 21       		.byte	33
 482 007e 20       		.byte	32
 483 007f E0       		.byte	-32
 484 0080 A0       		.byte	-96
 485 0081 60       		.byte	96
 486 0082 61       		.byte	97
 487 0083 A1       		.byte	-95
 488 0084 63       		.byte	99
 489 0085 A3       		.byte	-93
 490 0086 A2       		.byte	-94
 491 0087 62       		.byte	98
 492 0088 66       		.byte	102
 493 0089 A6       		.byte	-90
 494 008a A7       		.byte	-89
 495 008b 67       		.byte	103
 496 008c A5       		.byte	-91
 497 008d 65       		.byte	101
 498 008e 64       		.byte	100
 499 008f A4       		.byte	-92
 500 0090 6C       		.byte	108
 501 0091 AC       		.byte	-84
 502 0092 AD       		.byte	-83
 503 0093 6D       		.byte	109
 504 0094 AF       		.byte	-81
 505 0095 6F       		.byte	111
 506 0096 6E       		.byte	110
 507 0097 AE       		.byte	-82
 508 0098 AA       		.byte	-86
 509 0099 6A       		.byte	106
 510 009a 6B       		.byte	107
 511 009b AB       		.byte	-85
 512 009c 69       		.byte	105
 513 009d A9       		.byte	-87
ARM GAS  /tmp/ccrMsxnq.s 			page 11


 514 009e A8       		.byte	-88
 515 009f 68       		.byte	104
 516 00a0 78       		.byte	120
 517 00a1 B8       		.byte	-72
 518 00a2 B9       		.byte	-71
 519 00a3 79       		.byte	121
 520 00a4 BB       		.byte	-69
 521 00a5 7B       		.byte	123
 522 00a6 7A       		.byte	122
 523 00a7 BA       		.byte	-70
 524 00a8 BE       		.byte	-66
 525 00a9 7E       		.byte	126
 526 00aa 7F       		.byte	127
 527 00ab BF       		.byte	-65
 528 00ac 7D       		.byte	125
 529 00ad BD       		.byte	-67
 530 00ae BC       		.byte	-68
 531 00af 7C       		.byte	124
 532 00b0 B4       		.byte	-76
 533 00b1 74       		.byte	116
 534 00b2 75       		.byte	117
 535 00b3 B5       		.byte	-75
 536 00b4 77       		.byte	119
 537 00b5 B7       		.byte	-73
 538 00b6 B6       		.byte	-74
 539 00b7 76       		.byte	118
 540 00b8 72       		.byte	114
 541 00b9 B2       		.byte	-78
 542 00ba B3       		.byte	-77
 543 00bb 73       		.byte	115
 544 00bc B1       		.byte	-79
 545 00bd 71       		.byte	113
 546 00be 70       		.byte	112
 547 00bf B0       		.byte	-80
 548 00c0 50       		.byte	80
 549 00c1 90       		.byte	-112
 550 00c2 91       		.byte	-111
 551 00c3 51       		.byte	81
 552 00c4 93       		.byte	-109
 553 00c5 53       		.byte	83
 554 00c6 52       		.byte	82
 555 00c7 92       		.byte	-110
 556 00c8 96       		.byte	-106
 557 00c9 56       		.byte	86
 558 00ca 57       		.byte	87
 559 00cb 97       		.byte	-105
 560 00cc 55       		.byte	85
 561 00cd 95       		.byte	-107
 562 00ce 94       		.byte	-108
 563 00cf 54       		.byte	84
 564 00d0 9C       		.byte	-100
 565 00d1 5C       		.byte	92
 566 00d2 5D       		.byte	93
 567 00d3 9D       		.byte	-99
 568 00d4 5F       		.byte	95
 569 00d5 9F       		.byte	-97
 570 00d6 9E       		.byte	-98
ARM GAS  /tmp/ccrMsxnq.s 			page 12


 571 00d7 5E       		.byte	94
 572 00d8 5A       		.byte	90
 573 00d9 9A       		.byte	-102
 574 00da 9B       		.byte	-101
 575 00db 5B       		.byte	91
 576 00dc 99       		.byte	-103
 577 00dd 59       		.byte	89
 578 00de 58       		.byte	88
 579 00df 98       		.byte	-104
 580 00e0 88       		.byte	-120
 581 00e1 48       		.byte	72
 582 00e2 49       		.byte	73
 583 00e3 89       		.byte	-119
 584 00e4 4B       		.byte	75
 585 00e5 8B       		.byte	-117
 586 00e6 8A       		.byte	-118
 587 00e7 4A       		.byte	74
 588 00e8 4E       		.byte	78
 589 00e9 8E       		.byte	-114
 590 00ea 8F       		.byte	-113
 591 00eb 4F       		.byte	79
 592 00ec 8D       		.byte	-115
 593 00ed 4D       		.byte	77
 594 00ee 4C       		.byte	76
 595 00ef 8C       		.byte	-116
 596 00f0 44       		.byte	68
 597 00f1 84       		.byte	-124
 598 00f2 85       		.byte	-123
 599 00f3 45       		.byte	69
 600 00f4 87       		.byte	-121
 601 00f5 47       		.byte	71
 602 00f6 46       		.byte	70
 603 00f7 86       		.byte	-122
 604 00f8 82       		.byte	-126
 605 00f9 42       		.byte	66
 606 00fa 43       		.byte	67
 607 00fb 83       		.byte	-125
 608 00fc 41       		.byte	65
 609 00fd 81       		.byte	-127
 610 00fe 80       		.byte	-128
 611 00ff 40       		.byte	64
 612              		.text
 613              	.Letext0:
 614              		.file 2 "/opt/gcc-arm-none-eabi-7-2018-q2-update/arm-none-eabi/include/machine/_default_types.h"
 615              		.file 3 "/opt/gcc-arm-none-eabi-7-2018-q2-update/arm-none-eabi/include/sys/_stdint.h"
 616              		.file 4 "Drivers/CMSIS/Device/ST/STM32F0xx/Include/system_stm32f0xx.h"
ARM GAS  /tmp/ccrMsxnq.s 			page 13


DEFINED SYMBOLS
                            *ABS*:0000000000000000 CRC.c
     /tmp/ccrMsxnq.s:16     .text.CRC16:0000000000000000 $t
     /tmp/ccrMsxnq.s:23     .text.CRC16:0000000000000000 CRC16
     /tmp/ccrMsxnq.s:85     .text.CRC16:000000000000002c $d
     /tmp/ccrMsxnq.s:94     .rodata.crc_hi:0000000000000000 crc_hi
     /tmp/ccrMsxnq.s:355    .rodata.crc_lo:0000000000000000 crc_lo
     /tmp/ccrMsxnq.s:91     .rodata.crc_hi:0000000000000000 $d
     /tmp/ccrMsxnq.s:352    .rodata.crc_lo:0000000000000000 $d
                           .group:0000000000000000 wm4.0.551e9ec12083bcd424eedf159642ec2a
                           .group:0000000000000000 wm4.stdbool.h.29.07dce69c3b78884144b7f7bd19483461
                           .group:0000000000000000 wm4.stm32f091xc.h.37.0c8710a8cc4a1dfbf923cd217a4f643e
                           .group:0000000000000000 wm4._newlib_version.h.4.875b979a44719054cd750d0952ad3fd6
                           .group:0000000000000000 wm4.features.h.33.318b64d71e0957639cfb30f1db1f7ec8
                           .group:0000000000000000 wm4._default_types.h.15.247e5cd201eca3442cbf5404108c4935
                           .group:0000000000000000 wm4._intsup.h.10.cce27fed8484c08a33f522034c30d2b5
                           .group:0000000000000000 wm4._stdint.h.10.c24fa3af3bc1706662bb5593a907e841
                           .group:0000000000000000 wm4.stdint.h.23.d53047a68f4a85177f80b422d52785ed
                           .group:0000000000000000 wm4.cmsis_version.h.32.4d5822004c01a829a975260e854b5f8e
                           .group:0000000000000000 wm4.core_cm0.h.66.608acc5992a3a56ab454582ca0035b64
                           .group:0000000000000000 wm4.cmsis_gcc.h.26.ee5bffeddf1dfc3eae08637d3a2ff2e9
                           .group:0000000000000000 wm4.core_cm0.h.127.8376da717d3d1986f1bf8fce150d521c
                           .group:0000000000000000 wm4.stm32f091xc.h.602.ad42ac0b3577a7c37438dff1630b3dfb

NO UNDEFINED SYMBOLS
